:200000000C94D6000C94FE000C94FE000C94FE000C94FE000C94FE000C94FE000C94FE0018
:200020000C94FE000C9449080C945E050C94CD050C94FE000C94FE000C94FE000C94FE0044
:200040000C94FE000C94FE000C94FE000C94FE000C94FE000C94FE000C94FE000C94FF07A8
:200060000C94FE000C94FE000C94FE000C94FE000C94FE000C94FE000C94FE000C94FE0090
:200080000C94FE000C94FE000C94FE000C94FE000C94FE000C94FE000C94FE000C94FE0070
:2000A0000C94FE000C94FE000C94FE0000000000240027002A002D00300000000002000989
:2000C0000F0000030401000C0000000000000000000000000000000000080B0002020200E4
:2000E00000090400000102020000052400100105240101010424020605240600010705819B
:200100000310004009040100020A000000070502024000000705830240000004030904122B
:20012000010002EF0201404123368000010102030141726475696E6F204C4C430041726484
:2001400075696E6F204C656F6E6172646F00000000002300260029002C002F0000000000C3
:20016000250028002B002E0031000404040404030405020202020403020202020606060659
:2001800006060404020202040404080201104080401020408040800802040180402010026D
:2001A0000110801020404020C1083D0B11241FBECFEFDAE0DEBFCDBF11E0A0E0B1E0ECE14B
:2001C000F7E102C005900D92AA36B107D9F722E0AAE6B1E001C01D92AC33B207E1F710E0F6
:2001E000C5EDD0E004C02197FE010E947B0BC43DD107C9F70E9446090C94810B0C940000A4
:20020000FC018091CC01882311F13FB7F89482E08093E9002091F200822F90E01816190665
:2002200014F481E090E0882339F0289844E64093CB014091F1004083222339F02091F200F2
:20024000211103C02BE62093E8003FBF08958FEF9FEF08952FB7F89483E08093E9009091C7
:20026000E800892F807295FF04C09091F20080E4891B2FBF08958091C30181110DC082E058
:200280008093BF0184E08093C0011092C2011092C10181E08093C3018FEB91E008954091F9
:2002A000B5015091B6012091B3013091B40142175307B4F49091E8009570E1F39091E800CF
:2002C00092FD19C08093F1008091B5019091B60101968F739927892B19F48EEF8093E80081
:2002E0008091B5019091B60101969093B6018093B50181E0089580E00895EF92FF920F9376
:200300001F93CF93DF93F82E192FE62E042F81E0860F880F0E944F0183E00E944F01CF2DD2
:20032000D12FEC0EFD2EF11CCE15DF05B9F007FF13C0FE0184910E944F01182F80E00E94F3
:200340004F01812321968111EFCFDF91CF911F910F91FF90EF9008958881EDCF81E0F5CFED
:20036000DF92EF92FF920F931F93CF93DF93D82E8A01EB017B01E40EF51ECE15DF0559F0C4
:20038000D7FE12C0FE0184910E944F0121968111F4CF0FEF1FEFC801DF91CF911F910F91AF
:2003A000FF90EF90DF9008958881EECF0F931F93CF93DF931F92CDB7DEB782E0898342E4D7
:2003C00050E069ED70E080E80E94B0010E943B01DC0112960D911C910115110589F0D80160
:2003E000ED91FC910280F381E02DBE016F5F7F4FC801099597FD04C0F80100851185ECCF06
:2004000089810F90DF91CF911F910F910895615030F02091F100FC0120830196F8CF289845
:2004200084E68093CB010895AF92BF92CF92DF92EF92FF920F931F93CF93DF936C017B014F
:200440008B01040F151FEB015E01AE18BF08C017D10759F06991D601ED91FC910190F0811B
:20046000E02DC6010995892B79F7C501DF91CF911F910F91FF90EF90DF90CF90BF90AF9096
:200480000895CF93DF931F92CDB7DEB76983DC01ED91FC910280F381E02D41E050E0BE013A
:2004A0006F5F7F4F09950F90DF91CF91089583E08093E9008091F200882319F08AE3809360
:2004C000E80008950E942A0190E00895CF93DF931F92CDB7DEB7FC018485958597FD08C0A3
:2004E0002FEF3FEF358724870F90DF91CF910895CE0101960E940001019719F4898190E015
:20050000F3CF8FEF9FEFF0CF0F931F93CF93DF931F92CDB7DEB78C01FC018485958597FF19
:200520000BC0CE0101960E940001019771F4898190E0F80195878487F801848595850F9095
:20054000DF91CF911F910F9108958FEF9FEFF1CFFC018485958597FD0BC09FB7F89482E04F
:200560008093E9008091F2009FBF90E0019608959FB7F89482E08093E9008091F2009FBFD9
:2005800090E00895282F30E0F901E654FF4F9491F901E757FE4F849126593E4FF9012491EB
:2005A000222309F430C09923E9F091509F30D0F4E92FF0E0E252FD4F0C947B0B0C03100350
:2005C000ED0204030803F202F202F202130319031D0321032703F2022B03909180009F77C5
:2005E00090938000E22FF0E0EE0FFF1FE45AFE4FA591B4919FB7F894EC91611132C080957E
:200600008E238C939FBF0895909180009F7DE8CF90918000977FE4CF94B59F7794BDE2CFD0
:2006200094B59F7DFBCF909190009F7790939000D9CF909190009F7DF9CF90919000977F0D
:20064000F5CF9091C0009F779093C000CBCF9091C0009F7DF9CF9091C200977F9093C200BF
:20066000C1CF8E2BCECFCF93DF9390E0FC01E757FE4F249186599E4FFC0184918823D1F0C9
:2006800090E0880F991FFC01E455FF4FA591B491FC01E45AFE4FC591D49161110EC09FB7C3
:2006A000F8948C91E22FE0958E238C932881E223E8839FBFDF91CF9108958FB7F894EC9108
:2006C000E22BEC938FBFF6CF3FB7F8948091AF019091B001A091B101B091B20126B5A89B71
:2006E00005C02F3F19F00196A11DB11D3FBFBA2FA92F982F8827BC01CD01620F711D811D3E
:20070000911D42E0660F771F881F991F4A95D1F708958F929F92AF92BF92CF92DF92EF9224
:20072000FF924B015C010E9464036B017C010E9464036C197D098E099F09683E734081055B
:200740009105A8F321E0821A9108A108B10888EEC80E83E0D81EE11CF11C81149104A10452
:20076000B10429F7FF90EF90DF90CF90BF90AF909F908F9008958F929F92AF92BF92CF920A
:20078000DF92EF92FF920F931F93CF93DF936C017B018A0180910B01882309F45CC0809148
:2007A000CC01882309F457C08091B90180FF05C08091E00082608093E000E801B12C8AEF99
:2007C000A82E93E0892E2AE3922E209711F4BB20D9F10E942A0181110AC0AA94AA20D9F1F0
:2007E00061E070E080E090E00E948903EECF8C171D0611F00CF08C2F9FB7F8948092E90052
:200800002091E80025FD02C09FBFDFCF282F30E0C21BD30BF701815020F041914093F100BE
:20082000FACFE20EF31EBB2021F09092E800B12CEBCF8091E80085FDE7CF9092E800BB2447
:20084000B394209709F3F3CF5D9884E68093B801101611063CF081E090E0F6019383828365
:2008600010E000E0C801DF91CF911F910F91FF90EF90DF90CF90BF90AF909F908F9008956A
:200880002091BD013091BE012817390771F49091BB018091BC01981741F0E091BB01F0E0FD
:2008A000E659FE4F808190E008958FEF9FEF08950895EF92FF920F931F93CF93DF93DC0141
:2008C0005C96ED90FC905D97E114F10479F481E090E013969C938E93129790E080E0DF911F
:2008E000CF911F910F91FF90EF9008955196ED91FC91529750968C915097982F90950FB726
:200900005E962C915E97122F127021FD6095F8942081112319F1282B2083E7012197F1F772
:2009200028E0462F50E0308160FF1AC0382B3083E7012197F1F7BA0175956795215089F7D0
:20094000112381F08081892380830FBF5C968D919C910197F1F781E090E0C1CF2923DCCF5F
:200960003923E5CF9081892BEFCF2091BD013091BE012817390761F48091BC012091BB01E6
:2009800090E0805C9F4F821B91098F739927089590E080E008952091BD013091BE012817EC
:2009A0003907B9F49091BB018091BC01981789F0E091BB01F0E0E659FE4F80812091BB0180
:2009C00030E02F5F3F4F2F7333272093BB0190E008958FEF9FEF089590E080E00895FB0161
:2009E00001900020E9F73197AF01461B570BDC01ED91FC910280F381E02D09948F929F9251
:200A0000AF92BF92EF92FF920F931F93CF93DF93CDB7DEB7A1970FB6F894DEBF0FBECDBF72
:200A20007C01FA01CB0119A2223008F42AE08E010F5D1F4F822E912CB12CA12CBF01A50179
:200A400094010E94590BF901CA016A300CF5605DD8016E938D01232B242B252B79F790E0A9
:200A600080E0109721F0BD01C7010E94EF04A1960FB6F894DEBF0FBECDBFDF91CF911F9145
:200A80000F91FF90EF90BF90AF909F908F900895695CDECF0F931F93CF93DF93EC010E9406
:200AA000EF048C0167E371E0CE010E94EF04800F911FDF91CF911F910F9108951F920F9269
:200AC0000FB60F9211248F939F938091E1009091E100937F9093E10083FF0FC01092E90041
:200AE00091E09093EB001092EC0092E39093ED001092CC0198E09093F00082FF22C093E094
:200B00009093E9009091F200992319F09AE39093E8009091B801992341F09091B8019150E7
:200B20009093B801911101C05D9A9091CB01992341F09091CB0191509093CB01911101C085
:200B4000289A84FF18C08091E2008E7E81608093E2008091E1008F7E8093E1008091B901E5
:200B60008E7E80618093B9019F918F910F900FBE0F901F90189580FFF7CF8091E2008E7EC0
:200B800080618093E2008091E1008E7E8093E1008091B9018E7E8160E5CF1F920F920FB60A
:200BA0000F921124CF92DF92EF92FF920F931F932F933F934F935F936F937F938F939F9357
:200BC000AF93BF93EF93FF93CF93DF93CDB7DEB76C97DEBFCDBF1092E9008091E80083FF4E
:200BE00025C068E0CE0145960E94070282EF8093E8008D8987FF39C09091E80090FFFCCF0F
:200C0000982F907609F034C19E894F89588D2F89F88C911131C0803861F58091BA01809379
:200C2000F1001092F1008EEF8093E8006C960FB6F894DEBF0FBECDBFDF91CF91FF91EF918F
:200C4000BF91AF919F918F917F916F915F914F913F912F911F910F91FF90EF90DF90CF9018
:200C60000F900FBE0F901F9018959EEF9093E800C7CF1092F100D5CF913059F48111D3CF66
:200C80004130510581F68091BA018D7F8093BA01CACF933049F48111C6CF4130510519F6DA
:200CA0008091BA018260F2CF953041F48091E80080FFFCCF20682093E300B5CF963009F027
:200CC000A9C00B8D1C8D22E01092E9001092B6011092B501F2122EC01092B4011092B3018D
:200CE0000E94D6011F8299E09983FA8291E09E8390EA98879AEF99872091B5013091B60116
:200D0000275F3F4F3C832B838D831092E9001092B6011092B5011093B4010093B30149E03E
:200D200050E0BE016F5F7F4F80E00E94B0010E94D60179CF1093B4010093B3010E943B0137
:200D4000DC0112960D911C910115110509F451C1D801ED91FC910480F581E02DBE016B5E15
:200D60007F4FC8010995009709F03EC1F80100851185EACFF3E0FF120EC08F89882309F470
:200D800040C0823061F440E860E18DE391E00E947D01811148CF81E28093EB0047CF813011
:200DA00029F440E86BE081E391E0F1CF833099F70E943B01DC011296ED90FC908E010F5F62
:200DC0001F4F6801E114F10479F0D701ED91FC910680F781E02DB801C7010995080F111D97
:200DE000F701E084F184EECFD8011C92F60101900020E9F73197BF016C197D0940E0C601DC
:200E0000C6CF6BE171E0FB01449150E080E80E94B00109CF973009F4BECF983021F481E07D
:200E20008093F10000CF993009F0FDCE837009F0B2CFEDE0F1E081E031E096E32191222365
:200E400071F08093E9003093EB00DF0111972C912093EC009093ED008F5F873079F78EE709
:200E60008093EA001092EA008F898093CC01DBCE8B8D9C8D1092E9001092B6011092B501CB
:200E80009093B4018093B301898D811192C08E899D89913A49F4813209F07DCF47E050E025
:200EA00064E071E080E0B3CF913209F074CF833269F48F89988DB0E0A0E080930001909326
:200EC0000101A0930201B0930301ADCE803269F48091E80082FFFCCF67E084E091E00E9406
:200EE00007028BEF8093E8009ECE823209F09BCE8F8980930B01EEEFFFE7859194918B3FF3
:200F00009C4D51F1E0E0F8E08091040190910501A0910601B0910701803B9440A105B10565
:200F2000F1F480910B0180FD1AC0EE3F8AE0F80789F587E797E791838083809160008093BD
:200F4000B70188E19BE00FB6F894A895809360000FBE9093600067CEEEEFFAE0D5CF808113
:200F600091818737974709F05ECEA895809160008861809360008091B70180936000EE3F2B
:200F80002AE0F20789F08091FE0A9091FF0A9183808349CE808191818737980751F290938E
:200FA000FF0A8093FE0AC5CF1092FF0A1092FE0A3ACE0E943B01DC0112960D911C91011558
:200FC000110509F4E8CED801ED91FC910190F081E02DBE016B5E7F4FC8010995811123CE15
:200FE000F80100851185EBCF181619060CF41BCED2CEF1E0FF12BECE6FE171E004CF1F92BA
:201000000F920FB60F9211242F933F938F939F93AF93BF938091AB019091AC01A091AD01AE
:20102000B091AE013091AA0123E0230F2D3758F50196A11DB11D2093AA018093AB0190930B
:20104000AC01A093AD01B093AE018091AF019091B001A091B101B091B2010196A11DB11D83
:201060008093AF019093B001A093B101B093B201BF91AF919F918F913F912F910F900FBE22
:201080000F901F90189526E8230F0296A11DB11DD2CF1F920F920FB60F9211242F933F93CF
:2010A0004F935F936F937F938F939F93AF93BF93EF93FF93E091BD01F091BE01309749F0DD
:2010C000A685B7858585968D91FF14C09C918923A1F4FF91EF91BF91AF919F918F917F91AA
:2010E0006F915F914F913F912F910F900FBE0F901F9018959C91892361F7A389B4899C9162
:201100008589809589238C93868997890197F1F7608D718DA685B785558538E020E0CB0122
:201120000197F1F7822F90E095958795282F4C91452309F02068315091F7868D81FD20955C
:201140008091BC0190E001968F7399273091BB01381799F0A091BC01B0E0A659BE4F2C935A
:201160008093BC01828D938D0197F1F7A389B4898C919589892B8C93ACCF868D8160868FF5
:20118000F1CF1092D0011092CF0188EE93E0A0E0B0E08093D1019093D201A093D301B0938C
:2011A000D40127E131E03093CE012093CD012FEF3FEF3093DA012093D90110922002109251
:2011C0001F028093210290932202A0932302B093240289E291E090931E0280931D021092BD
:2011E0003402109233021092360210923502109238021092370210923A02109239026091CC
:201200003B026E7F6D7F60933B026695617081E0682783E00E94C20261E083E00E94330387
:20122000ECE8F1E0E491E0932D02EDE6F1E0E491F0E0EE0FFF1FE45AFE4F85919491909305
:201240002F0280932E0260E082E00E94330380913B0281FD04C061E082E00E94C20282E0A5
:2012600080932902EBE8F1E0E491E0932A02ECE6F1E0E491F0E0EE0FFF1FE25BFE4F8591D5
:20128000949190932C0280932B020895789484B5826084BD84B5816084BD85B5826085BDDA
:2012A00085B5816085BD80916E00816080936E0010928100809181008260809381008091B4
:2012C000810081608093810080918000816080938000809191008260809391008091910049
:2012E000816080939100809190008160809390008091C10084608093C1008091C100826006
:201300008093C1008091C10081608093C1008091C30081608093C3008091C0008260809321
:20132000C0008091C20081608093C20080917A00846080937A0080917A00826080937A006E
:2013400080917A00816080937A0080917A00806880937A001092CC011092BA011092B9016C
:201360008091D70081608093D70080EA8093D80089B5806189BD89B5826089BD09B400FEDF
:20138000FDCF61E070E080E090E00E9489038091D8008F7C80618093D8008091E000807F42
:2013A0008093E0008091E1008E7E8093E1008DE08093E200559A209A61E08CE00E943303B8
:2013C00061E08DE00E9433031092380210923702109236021092350210923402109233026E
:2013E0008DEC90E090933A02809339028091290228EF280F243048F092EF980F943028F03D
:2014000096EE980F933008F057C045E550E050933402409333024BEC50E0509336024093FF
:20142000350240E950E05093380240933702243050F092EF980F943030F096EE980FF0E058
:20144000E0E0933010F4E8E6F0E09081243048F022EF280F243028F08A51F0E0E0E08330F8
:2014600010F4E8E6F0E0916090832091290238EF320F343048F082EF820F843028F086EEA4
:20148000820F833008F0E3C08BE690E09093310280933002343008F0DDC02450330B81E0E5
:2014A00001C0880F2A95EAF7809332028091390290913A020197F1F780913702909138021F
:2014C000892B49F1E091BD01F091BE0182E0ED31F80709F1309739F0A389B4899C918589A2
:2014E000809589238C9380913B028E7F80933B021092BC011092BB018DE192E09093BE01E2
:201500008093BD01E0913002F0913102808190913202892B80838FEF9FEF9093DA01809379
:20152000D9016AE371E08DE192E00E944A05C0E0D0E066E471E08DE192E00E944A058DEC2D
:2015400091E00E94A802892B91F18DEC91E00E9466026C01990FEE08FF082AE0B701A60129
:20156000F7FE0DC06DE28DE192E00E94590444275527BA014C195D096E097F092AE08DE197
:2015800092E00E94FE0467E371E08DE192E00E94EF0461E08CE00E94C20268EE73E080E009
:2015A00090E00E94890360E08DE00E94C2026AEF70E080E090E00E9489036BE571E08DECB9
:2015C00091E00E944A058DE192E00E94B504892B91F18DE192E00E94CB046C01990FEE08DC
:2015E000FF082AE0B701A601F7FE0DC06DE28DEC91E00E94410244275527BA014C195D092E
:201600006E097F092AE08DEC91E00E94FE0467E371E08DEC91E00E94EF0461E08DE00E94C9
:20162000C20268EE73E080E090E00E94890360E08CE00E94C2026AEF70E080E090E00E9412
:201640008903209709F475CF0E94000072CF90E080E01CCF88E02E3009F426CF82E02F30EF
:2016600009F422CF84E0203109F41ECF81E0213109F41ACF2651330B12CF89E291E09093AF
:201680001E0280931D028091BD019091BE018D51924071F4E0913002F091310290818091BB
:2016A00032028095892380831092BE011092BD010895A1E21A2EAA1BBB1BFD010DC0AA1FDA
:2016C000BB1FEE1FFF1FA217B307E407F50720F0A21BB30BE40BF50B661F771F881F991FB7
:2016E0001A9469F760957095809590959B01AC01BD01CF010895EE0FFF1F0590F491E02DF2
:20170000099410E0C5EDD0E004C0FE010E947B0B2196C63DD107C9F7F894FFCFFFFFFFFF47
:2017200000E100000000000000C18081000000000000004102BB0362025702A802660284B2
:20174000020000000059041402EC045804B504CB0440040D0A00656E74657220696E7075EB
:2017600074002074686973206973206120736F667477617265200020526567756C617220E3
:20178000706F72742000FFFFFFFFFFFFFFFFFFFFFFFFFFFFFFFFFFFFFFFFFFFFFFFFFFFF7E
:2017A000FFFFFFFFFFFFFFFFFFFFFFFFFFFFFFFFFFFFFFFFFFFFFFFFFFFFFFFFFFFFFFFF49
:2017C000FFFFFFFFFFFFFFFFFFFFFFFFFFFFFFFFFFFFFFFFFFFFFFFFFFFFFFFFFFFFFFFF29
:2017E000FFFFFFFFFFFFFFFFFFFFFFFFFFFFFFFFFFFFFFFFFFFFFFFFFFFFFFFFFFFFFFFF09
:201800001C02F0911D02908180911E028095892380831092A4011092A30108950E94190C13
:20182000A59F900DB49F900DA49F800D911D11240895A29FB001B39FC001A39F700D811D25
:201840001124911DB29F700D811D1124911D089597FB072E16F4009407D077FD09D00E948E
:20186000640C07FC05D03EF4909581959F4F0895709561957F4F0895A1E21A2EAA1BBB1B5C
:20188000FD010DC0AA1FBB1FEE1FFF1FA217B307E407F50720F0A21BB30BE40BF50B661F56
:2018A000771F881F991F1A9469F760957095809590959B01AC01BD01CF010895EE0FFF1F62
:2018C0000590F491E02D0994AA1BBB1B51E107C0AA1FBB1FA617B70710F0A61BB70B881F68
:2018E000991F5A95A9F780959095BC01CD01089510E0C5EDD0E004C0FE010E945E0C219667
:20190000C63DD107C9F7F894FFCFFFFFFFFF00E100000000000000C1808100000000000033
:20192000004102FB0362025702E8026602840200000000990414022E059804F5040D0580C4
:20194000040D0A005374617465204368616E67656420746F200053746174653A2000FFFF25
:20196000FFFFFFFFFFFFFFFFFFFFFFFFFFFFFFFFFFFFFFFFFFFFFFFFFFFFFFFFFFFFFFFF87
:2019800011C0408151810281138148175907E0F04817590799F4109761F012960C93129709
:2019A00013961C933296CF01DF91CF911F910F9108950093440210934502F4CF2115310588
:2019C00051F04217530738F0A901DB019A01BD01DF01F801C1CFEF01F9CF9093450280936E
:2019E0004402CDCFFE01E20FF31F819391932250310939832883D7CF209142023091430217
:201A0000232B41F420910E0130910F01309343022093420220910C0130910D0121153105BA
:201A200041F42DB73EB74091100150911101241B350BE0914202F0914302E217F307A0F442
:201A40002E1B3F0B2817390778F0AC014E5F5F4F2417350748F04E0F5F1F5093430240937F
:201A60004202819391939FCFF0E0E0E09CCFCF93DF930097E9F0FC01329713821282A0911D
:201A80004402B0914502ED0130E020E01097A1F420813181820F931F2091420230914302AD
:201AA0002817390709F061C0F0934302E0934202DF91CF910895EA01CE17DF07E8F54A8143
:201AC0005B819E0141155105B1F7E901FB83EA8349915991C40FD51FEC17FD0761F480817A
:201AE00091810296840F951FE90199838883828193819B838A83F0E0E0E012968D919C911F
:201B000013970097B9F52D913C911197CD010296820F931F20914202309143022817390780
:201B200039F6309751F51092450210924402B0934302A0934202BCCFD383C28340815181E0
:201B4000840F951FC817D90761F44E5F5F4F88819981480F591F518340838A819B81938309
:201B600082832115310509F0B0CFF0934502E09344029ECFFD01DC01C0CF13821282D7CF53
:201B8000B0E0A0E0E6ECFDE00C94380C8C01009751F4CB010E949B0C8C01C801CDB7DEB7B5
:201BA000E0E10C94540CFC01E60FF71F9C0122503109E217F30708F49DC0D901CD91DC9122
:201BC0001197C617D70798F0C530D10530F3CE0104978617970708F3C61BD70B2297C193BC
:201BE000D1936D937C93CF010E94370DD6CF5B01AC1ABD0A4C018C0E9D1EA0914402B091D4
:201C00004502512C412CF12CE12C109731F580914202909143028815990509F05CC0461635
:201C2000570608F058C080910C0190910D01009741F48DB79EB74091100150911101841B11
:201C4000950BE817F90708F055C0F0934302E0934202F90171836083A0CF8D919C91119726
:201C600012966C90129713967C901397A815B90559F56C0142E0C40ED11CCA14DB0420F1D3
:201C8000AC014A195B09DA011296159780F06282738251834083D9016D937C93E114F104EE
:201CA00071F0D7011396FC93EE93129776CF22968C0F9D1FF90191838083F301EFCFF093EF
:201CC0004502E093440269CF4816590608F42C017D01D3019ACFCB010E949B0C7C01009702
:201CE00049F0AE01B8010E947D0EC8010E94370D870153CF10E000E050CFFB01DC0102C033
:201D000001900D9241505040D8F70895FB01DC0101900D920020E1F7089510E0C5EDD0E016
:201D200004C0FE010E94810C2196C63DD107C9F7F894FFCFFFFFFFFF00E100000000000028
:201D400000004602800000C18081000000000000004202BC0363025802A90267028502009C
:201D60000000005A041502EF045904B604CE0441040D0A00207468697320697320612073CE
:201D80006F667477617265200020526567756C617220706F72742000FFFFFFFFFFFFFFFF3C
:201DA000FFFFFFFFFFFFFFFFFFFFFFFFFFFFFFFFFFFFFFFFFFFFFFFFFFFFFFFFFFFFFFFF43
:201DC000FFFFFFFFFFFFFFFFFFFFFFFFFFFFFFFFFFFFFFFFFFFFFFFFFFFFFFFFFFFFFFFF23
:201DE000FFFFFFFFFFFFFFFFFFFFFFFFFFFFFFFFFFFFFFFFFFFFFFFFFFFFFFFFFFFFFFFF03
:201E00000895FB01DC0101900D920020E1F7089510E0C5EDD0E004C0FE010E94F30C21961A
:201E2000C63DD107C9F7F894FFCFFFFFFFFF00E100000000000000007A02800000C1808112
:201E4000000000000000004202FC0363025802E9026702C502000000009A0415022F0599E3
:201E600004F6040E0581040D0A00526561647920666F7220696E7075742100526563656900
:201E80007665643A2000536F6674776172652053657269616C206563686F3A200072005201
:201EA0000067004700556E6B6E6F776E20636F6D6D616E642E205479706520277227206F26
:201EC00072202767272E0000FFFFFFFFFFFFFFFFFFFFFFFFFFFFFFFFFFFFFFFFFFFFFFFFA5
:201EE000FFFFFFFFFFFFFFFFFFFFFFFFFFFFFFFFFFFFFFFFFFFFFFFFFFFFFFFFFFFFFFFF02
:201F00001124E151FD4FD301C201A370BB2785839683A783B0878091F2028230A0F18091A7
:201F2000EF029091F002DC01ED91FC910284F385E02D0995682E8091EF029091F002DC0184
:201F4000ED91FC910284F385E02D0995582E8091EF029091F002DC01ED91FC910284F3854C
:201F6000E02D0995482EE0912403B4E0EB9FF0011124E150FD4FD301C201A370BB27858353
:201F80009683A783B0878091F2028330A0F18091EF029091F002DC01ED91FC910284F38583
:201FA000E02D0995682E8091EF029091F002DC01ED91FC910284F385E02D0995582E8091A3
:201FC000EF029091F002DC01ED91FC910284F385E02D0995482EE0912403B4E0EB9FF0014F
:201FE0001124E15FFC4FD301C201A370BB2785839683A783B0872091F2024DEF420390015C
:202000001124E20EF31E49CFCA94CD2809F0EFCEE091240334E0E39FF0011124E150FD4F98
:2020200085819681A781B08503C080E090E0DC014091FD015091FE015093FC014093FB0158
:202040000091F7011091F8012091F9013091FA016C017D016FE0CC0CDD1CEE1CFF1C6A95C7
:20206000D1F7CC24E0E8DE22E894F7F8C01AD10AE20AF30A74E0F594E794D794C7947A95AA
:20208000D1F7C00ED11EE21EF31EC092F701D092F801E092F901F092FA011091EE01A12EBD
:2020A000B12CF501EE0FFF1FE255FE4FBFE0F594E794D794C794BA95D1F78C199D099183CF
:2020C0008083F5013B97EF71FF27EE0FFF1FE255FE4FC080D1800D2C000CEE08FF088CE0D1
:2020E000CC0CDD1CEE1CFF1C8A95D1F7F6E1AF1AB10892E1892E91E0992E00E0D4016D9195
:202100007D914D01E12FE01BEF71F0E0EE0FFF1FE255FE4FD501AF71BB27AA0FBB1FA25527
:20212000BE4F208131818D919C91280F391FDB010E941F14C60ED71EE81EF91E0F5FBFEFB2
:20214000AB1ABB0A0B30D1F61F5F1F711093EE013FE0F594E794D794C7943A95D1F796013C
:20216000D092FE01C092FD01ED2DE095E523EE1FEE27EE1FE9F08091F5019091F6016091FF
:20218000F3017091F401E1E0F0E0F093F201E093F1011092F0011092EF011092F601109289
:2021A000F501861B970B4597833D934008F0E0E0141615068CF41216130674F01092F201C0
:2021C0001092F10181E090E09093F0018093EF011092F4011092F30181E090E042175307D2
:2021E00014F090E080E06091F1017091F20186239723892B21F0D092F601C092F50181E00A
:2022000090E02417350714F090E080E02091EF013091F00182239323892B21F0D092F40139
:20222000C092F301EE2309F402C10E941E04009106021091070220910802309109026B018D
:202240007C01C01AD10AE20AF30A0E941E0460930602709307028093080290930902C70185
:20226000B6010E94691220E030E04AE754E40E945F139B01AC0160E070E080E792E40E94A5
:202280005F136B017C0120E030E04FE753E40E94621287FFCCC020E030E040EA51E4C70107
:2022A000B6010E94001418160CF0C1C0ADB7BEB7BC8BAB8B90900502092D10E00F5F1D4F89
:2022C000C701B6010E94D113F801608381E0890D8370809305022091020280910102280F19
:2022E0003327331F80910302280F311D80910402820F932F911D95958795959587959093D0
:2023000000028093FF014AE0B1010E942D12F10101900020E9F731978F0102191309B80120
:202320006F5F7F4F90E080E00E9467157C01009799F1DC011C92B1010E942D16C8010196F3
:20234000EDB7FEB7E81BF90B0FB6F894FEBF0FBEEDBF2DB73EB72F5F3F4F6901011511050B
:20236000F1F411820F5F80913A03811122C010912F03101708F4012F101B0E94080780EA49
:202380000E94010780932E030150D0F0D6018D916D010E940107F8CF10E000E0CFCFA80153
:2023A000B701C9010E943416F601E00FF11F1082D9CF11E0011110E00132F8F200E2DDCFE1
:2023C000115020F080E00E940107FACF0E943F0381E00E9422030E941E044B015C018FEFC2
:2023E0000E94430780912E03807349F50E941E04681979098A099B09603671058105910558
:2024000070F3B1E0B0933B0368EE73E080E090E00E946703E114F10419F0C7010E94DE1473
:20242000EB89FC890FB6F894FEBF0FBEEDBF20E030E0232B09F4BECC0E940000BBCC80E0AE
:202440000E94220360E787E00E94300780912E0384FFDACF0E944F07D7CFBB274A3031F4A1
:20246000992322F4BDE2909581959F4F0C943912BB27FB015527AA27880F991FAA1FA417D9
:2024800010F0A41B83955051B9F7A05DAA3308F0A95DA193009779F7B111B1931192CB018C
:2024A0000C945212DC01FC01672F71917723E1F7329704C07C916D9370836291AE17BF0729
:2024C000C8F308950E94A41208F481E00895E89409C097FB3EF490958095709561957F4F46
:2024E0008F4F9F4F9923A9F0F92F96E9BB279395F695879577956795B795F111F8CFFAF458
:20250000BB0F11F460FF1BC06F5F7F4F8F4F9F4F16C0882311F096E911C0772321F09EE847
:20252000872F762F05C0662371F096E8862F70E060E02AF09A95660F771F881FDAF7880F6B
:202540009695879597F90895990F0008550FAA0BE0E8FEEF16161706E807F907C0F0121679
:202560001306E407F50798F0621B730B840B950B39F40A2661F0232B242B252B21F408955C
:202580000A2609F4A140A6958FEF811D811D089597F99F6780E870E060E008959FEF80EC76
:2025A000089500240A941616170618060906089500240A9412161306140605060895092EAD
:2025C0000394000C11F4882352F0BB0F40F4BF2B11F460FF04C06F5F7F4F8F4F9F4F089551
:2025E00057FD9058440F551F59F05F3F71F04795880F97FB991F61F09F3F79F08795089582
:20260000121613061406551FF2CF4695F1DF08C0161617061806991FF1CF869571056105E1
:2026200008940895E894BB2766277727CB0197F908952F923F924F925F926F927F928F9248
:202640009F92AF92BF92CF92DF92EF92FF920F931F93CF93DF93CDB7DEB7CA1BDB0B0FB602
:20266000F894DEBF0FBECDBF09942A88398848885F846E847D848C849B84AA84B984C8843C
:20268000DF80EE80FD800C811B81AA81B981CE0FD11D0FB6F894DEBF0FBECDBFED010895C5
:2026A000A29FB001B39FC001A39F700D811D1124911DB29F700D811D1124911D08950E9447
:2026C00073130C94DF120E94D81258F00E94D11240F029F45F3F29F00C94C81251110C940A
:2026E00013130C94CE120E94F01268F39923B1F3552391F3951B550BBB27AA276217730723
:20270000840738F09F5F5F4F220F331F441FAA1FA9F335D00E2E3AF0E0E832D09150504069
:20272000E695001CCAF72BD0FE2F29D0660F771F881FBB1F261737074807AB07B0E809F087
:20274000BB0B802DBF01FF2793585F4F3AF09E3F510578F00C94C8120C9413135F3FE4F30D
:20276000983ED4F3869577956795B795F7959F5FC9F7880F911D9695879597F90895E1E089
:20278000660F771F881FBB1F621773078407BA0720F0621B730B840BBA0BEE1F88F7E0950E
:2027A00008950E94F81288F09F5798F0B92F9927B751B0F0E1F0660F771F881F991F1AF045
:2027C000BA95C9F714C0B13091F00E941213B1E008950C941213672F782F8827B85F39F0CE
:2027E000B93FCCF3869577956795B395D9F73EF490958095709561957F4F8F4F9F4F089549
:202800000E94A41208F48FEF089597FB072E16F4009407D077FD09D00E942E1407FC05D004
:202820003EF4909581959F4F0895709561957F4F0895EE0FFF1F0590F491E02D09940E94B9
:202840005013332312F48A1B9B0B0C9429140E945013B7FF0895821B930B0895AA1BBB1BC6
:2028600051E107C0AA1FBB1FA617B70710F0A61BB70B881F991F5A95A9F780959095BC01D9
:20288000CD0108950F931F93CF93DF938230910510F482E090E0E0914603F091470330E0F2
:2028A00020E0B0E0A0E0309799F42115310509F44AC0281B390B24303105D8F58A819B813C
:2028C0006115710589F1FB0193838283FE0111C0408151810281138148175907E0F0481713
:2028E000590799F4109761F012960C93129713961C933296CF01DF91CF911F910F91089556
:202900000093460310934703F4CF2115310551F04217530738F0A901DB019A01BD01DF01E4
:20292000F801C1CFEF01F9CF9093470380934603CDCFFE01E20FF31F81939193225031090B
:2029400039832883D7CF2091440330914503232B41F420910E0130910F0130934503209397
:20296000440320910C0130910D012115310541F42DB73EB74091100150911101241B350BB5
:20298000E0914403F0914503E217F307A0F42E1B3F0B2817390778F0AC014E5F5F4F241772
:2029A000350748F04E0F5F1F5093450340934403819391939FCFF0E0E0E09CCFCF93DF930E
:2029C0000097E9F0FC01329713821282A0914603B0914703ED0130E020E01097A1F42081B8
:2029E0003181820F931F20914403309145032817390709F061C0F0934503E0934403DF9153
:202A0000CF910895EA01CE17DF07E8F54A815B819E0141155105B1F7E901FB83EA834991DD
:202A20005991C40FD51FEC17FD0761F4808191810296840F951FE90199838883828193816F
:202A40009B838A83F0E0E0E012968D919C9113970097B9F52D913C911197CD010296820FAF
:202A6000931F20914403309145032817390739F6309751F51092470310924603B093450386
:202A8000A0934403BCCFD383C28340815181840F951FC817D90761F44E5F5F4F888199812A
:202AA000480F591F518340838A819B81938382832115310509F0B0CFF0934703E093460301
:202AC0009ECFFD01DC01C0CF13821282D7CFB0E0A0E0EDE6F5E10C941B138C01009751F460
:202AE000CB010E9442148C01C801CDB7DEB7E0E10C943713FC01E60FF71F9C0122503109A7
:202B0000E217F30708F49DC0D901CD91DC911197C617D70798F0C530D10530F3CE01049781
:202B20008617970708F3C61BD70B2297C193D1936D937C93CF010E94DE14D6CF5B01AC1AF1
:202B4000BD0A4C018C0E9D1EA0914603B0914703512C412CF12CE12C109731F580914403CE
:202B6000909145038815990509F05CC04616570608F058C080910C0190910D01009741F4BA
:202B80008DB79EB74091100150911101841B950BE817F90708F055C0F0934503E0934403F7
:202BA000F90171836083A0CF8D919C91119712966C90129713967C901397A815B90559F56D
:202BC0006C0142E0C40ED11CCA14DB0420F1AC014A195B09DA011296159780F062827382ED
:202BE00051834083D9016D937C93E114F10471F0D7011396FC93EE93129776CF22968C0F38
:202C00009D1FF90191838083F301EFCFF0934703E093460369CF4816590608F42C017D0110
:202C2000D3019ACFCB010E9442147C01009749F0AE01B8010E942416C8010E94DE1487011D
:202C400053CF10E000E050CFFB01DC0102C001900D9241505040D8F70895FB01DC010190A1
:202C60000D920020E1F70895FB01DC014150504048F001900D920020C9F701C01D924150DD
:202C80005040E0F70895F894FFCFFFFFFFFF00E1000000000000000048038000AC00410140
:202CA00043029F03500542075609640B3F0DB80EAC0F001000C18081000000303030303131
:202CC0000000000000690199038A017F01D0018E01AC0100000000CF06A206FE0678069B3C
:202CE000068806790600FFFFFFFFFFFFFFFFFFFFFFFFFFFFFFFFFFFFFFFFFFFFFFFFFFFFDB
:202D00000E94011820F039F49F3F19F426F40C94F7170EF4E095E7FB0C94F117E92F0E944D
:202D2000191858F3BA17620773078407950720F079F4A6F50C943B180EF4E0950B2EBA2F98
:202D4000A02D0B01B90190010C01CA01A0011124FF27591B99F0593F50F4503E68F11A168B
:202D6000F040A22F232F342F4427585FF3CF469537952795A795F0405395C9F77EF41F169B
:202D8000BA0B620B730B840BBAF09150A1F0FF0FBB1F661F771F881FC2F70EC0BA0F621F5D
:202DA000731F841F48F4879577956795B795F7959E3F08F0B0CF9395880F08F09927EE0FDE
:202DC0009795879508950E94CD1708F481E008950E94FC160C9408180E94011858F00E9475
:202DE000FA1740F029F45F3F29F00C94F11751110C943C180C94F7170E94191868F3992328
:202E0000B1F3552391F3951B550BBB27AA2762177307840738F09F5F5F4F220F331F441F17
:202E2000AA1FA9F335D00E2E3AF0E0E832D091505040E695001CCAF72BD0FE2F29D0660F99
:202E4000771F881FBB1F261737074807AB07B0E809F0BB0B802DBF01FF2793585F4F3AF032
:202E60009E3F510578F00C94F1170C943C185F3FE4F3983ED4F3869577956795B795F7950E
:202E80009F5FC9F7880F911D9695879597F90895E1E0660F771F881FBB1F621773078407F0
:202EA000BA0720F0621B730B840BBA0BEE1F88F7E09508950E9461176894B1110C943C1888
:202EC00008950E94211888F09F5798F0B92F9927B751B0F0E1F0660F771F881F991F1AF0EF
:202EE000BA95C9F714C0B13091F00E943B18B1E008950C943B18672F782F8827B85F39F04B
:202F0000B93FCCF3869577956795B395D9F73EF490958095709561957F4F8F4F9F4F089521
:202F2000E89409C097FB3EF490958095709561957F4F8F4F9F4F9923A9F0F92F96E9BB27DB
:202F40009395F695879577956795B795F111F8CFFAF4BB0F11F460FF1BC06F5F7F4F8F4F14
:202F60009F4F16C0882311F096E911C0772321F09EE8872F762F05C0662371F096E8862F23
:202F800070E060E02AF09A95660F771F881FDAF7880F9695879597F90895990F0008550FB6
:202FA000AA0BE0E8FEEF16161706E807F907C0F012161306E407F50798F0621B730B840B85
:202FC000950B39F40A2661F0232B242B252B21F408950A2609F4A140A6958FEF811D811D01
:202FE000089597F99F6780E870E060E008959FEF80EC089500240A9416161706180609063A
:20300000089500240A9412161306140605060895092E0394000C11F4882352F0BB0F40F484
:20302000BF2B11F460FF04C06F5F7F4F8F4F9F4F089557FD9058440F551F59F05F3F71F02E
:203040004795880F97FB991F61F09F3F79F087950895121613061406551FF2CF4695F1DF27
:2030600008C0161617061806991FF1CF86957105610508940895E894BB2766277727CB0124
:2030800097F908950E94CD1708F48FEF08950E945A180C9408180E94FA1738F00E940118FC
:2030A00020F0952311F00C94F1170C94F71711240C943C180E94191870F3959FC1F3950F06
:2030C00050E0551F629FF001729FBB27F00DB11D639FAA27F00DB11DAA1F649F6627B00DE8
:2030E000A11D661F829F2227B00DA11D621F739FB00DA11D621F839FA00D611D221F749F78
:203100003327A00D611D231F849F600D211D822F762F6A2F11249F5750409AF0F1F088235A
:203120004AF0EE0FFF1FBB1F661F771F881F91505040A9F79E3F510580F00C94F1170C94A2
:203140003C185F3FE4F3983ED4F3869577956795B795F795E7959F5FC1F7FE2B880F911D6E
:203160009695879597F908950E94CD17880B990B089597FB072E16F4009407D077FD09D0F8
:203180000E94131907FC05D03EF4909581959F4F0895709561957F4F0895A1E21A2EAA1B9B
:2031A000BB1BFD010DC0AA1FBB1FEE1FFF1FA217B307E407F50720F0A21BB30BE40BF50BCC
:2031C000661F771F881F991F1A9469F760957095809590959B01AC01BD01CF010895EE0FC2
:2031E000FF1F0590F491E02D09940E94FD18332312F48A1B9B0B0C940E19A29FB001B39F84
:20320000C001A39F700D811D1124911DB29F700D811D1124911D08950E94FD18B7FF0895B7
:20322000821B930B0895AA1BBB1B51E107C0AA1FBB1FA617B70710F0A61BB70B881F991F22
:203240005A95A9F780959095BC01CD010895AEE0B0E0EDE2F9E10C944D160D891E8986E010
:203260008C831A8309838FEF9FE79E838D83AE01475E5F4F6F89788DCE0101960E94C11306
:203280002F813885020F131FF80110822E96E4E00C946916F894FFCFFFFFFFFF00E1000015
:2032A0000000000000C18081000000AC00410143029F03500542075609640B3F0DB80EAC4D
:2032C0000F0010303030303100000000004202AB0363025802A9026702850200000000E1B1
:2032E00006B40610078A06AD069A068B060D0A00496E697469616C697A696E672E2E2E00F7
:203300004D4158333031303520776173206E6F7420666F756E642E20506C6561736520638B
:203320006865636B20776972696E672F706F7765722E00506C61636520796F757220696EED
:203340006465782066696E676572206F6E207468652073656E736F72207769746820737496
:20336000656164792070726573737572652E0053657269616C2073746172746564005261B9
:2033800064696F20737461727465640050697065206F70656E00526164696F206F706572B5
:2033A0006174696E67206173207472616E736D69747465720042504D3A2025642C20417664
:2033C000673A2025640049523D002C2042504D3D006E616E00696E66006F7666002C204111
:2033E00076672042504D3D00204E6F2066696E6765723F00FFFFFFFFFFFFFFFFFFFFFFFF09
:203400007C013B018A01FC0117821682838181FFC8C1CE0101965C01F7019381F30193FDDA
:20342000859193FF81913F01882309F453C1853239F493FD859193FF81913F01853229F494
:20344000B70190E00E94EA1BE7CF912C212C312CFFE1F31538F08B3211F190F4803209F181
:20346000833229F137FC3CC020ED280F2A3050F536FE20C08AE0989E200D1124922E06C0CF
:203480008D3291F0803371F7689430F8F30193FD859193FF81913F018111DACF21C0689417
:2034A00031F8689432F8F2CF689433F8EFCF689434F8ECCFEAE02E9E200D1124222E6894F0
:2034C00035F8E4CF8E3229F436FC04C1689436F8DDCF8C3619F4689437F8D8CF8836B1F260
:2034E000982F9F7D95549330E0F08336A1F18337C1F1833509F063C02801F2E04F0E511C1D
:20350000F801C080D180692D70E036FC02C06FEF7FEFC6010E94D41B4C01689437F8820128
:203520000AC00C5F1F4FFFE3F98388248394912C6501E89437F833FE2DC0522C8114910433
:2035400071F5552009F468CFB70180E290E00E94EA1B5A94F6CFF801808189830E5F1F4F97
:20356000E4CF2801F2E04F0E511CF801C080D180692D70E036FC02C06FEF7FEFC6010E943A
:20358000DF1B4C018201D5CFB70180E290E00E94EA1B2A942814190409F0B0F7CECFF60141
:2035A00037FC859137FE81916F01B70190E00E94EA1B51105A94F1E08F1A9108BFCF843692
:2035C00019F0893609F077C0F80137FE6BC060817181828193810C5F1F4FF32DFF763F2ED5
:2035E00097FF09C090958095709561957F4F8F4F9F4F689437F82AE030E0A5010E941A1CDA
:20360000C82ECA188C2C432C36FE0CC0E89440F8C91440F434FE05C032FC03C0F32DFE7E62
:203620004F2E892C44FE95C0FE01EC0DF11D8081803309F087C0242D297E422E842D8870B6
:20364000582E43FC95C040FE8FC09C2C821418F42C0C922C981844FE91C0B70180E390E095
:203660000E94EA1B42FE09C088E790E041FE02C088E590E0B7010E94EA1BC91408F48AC05B
:20368000CA94D12C9FEFC91AD90ACA0CDB1CF60182916F01B70190E00E94EA1BAC14BD04E4
:2036A000B1F74FCF60817181072E000C880B990B0E5F1F4F92CFD32CE894D4F82AE030E05C
:2036C000853739F1232D297FD22E8F3601F148F48835A9F0F701868197812B96E2E10C9488
:2036E000941C803749F08837A9F7D4FE02C06894D2F820E130E00DC06894D4F8F6CF34FED4
:2037000003C0822F8660D82E20E132E002C028E030E0F801D7FE0FC06081718182819381D5
:203720000C5F1F4FA5010E941A1CC82ECA183D2CE89437F867CF6081718190E080E00E5F00
:203740001F4FF0CF42FC02C0839478CF8394839475CF842D867809F471CFF6CFB70180E2A1
:2037600090E00E94EA1B83948214C0F3512C73CF522C5818821408F46ECFF8CF842D8678E0
:2037800009F47BCF8BE241FE80E247FC8DE2B70190E071CFB70180E390E00E94EA1B9A945A
:2037A0006CCF8FEF9FEF99CFFC010590615070400110D8F7809590958E0F9F1F0895FC0158
:2037C0006150704001900110D8F7809590958E0F9F1F08950F931F93CF93DF93182F092F3E
:2037E000EB018B8181FD09C01FEF0FEF812F902FDF91CF911F910F91089582FF14C02E814E
:203800003F818C819D81281739073CF4E881F981CF0101969983888310838E819F81019644
:203820009F838E83E3CFE885F985812F0995892BA1F3DACFFA01AA27283051F1203181F150
:20384000E8946F936E7F6E5F7F4F8F4F9F4FAF4FB1E03ED0B4E03CD0670F781F891F9A1FEB
:20386000A11D680F791F8A1F911DA11D6A0F711D811D911DA11D20D009F468943F912AE092
:20388000269F11243019305D3193DEF6CF010895462F4770405D4193B3E00FD0C9F7F6CFBF
:2038A000462F4F70405D4A3318F0495D31FD4052419302D0A9F7EACFB4E0A6959795879536
:2038C00077956795BA95C9F700976105710508959B01AC010A2E0694579547953795279556
:2038E000BA95C9F7620F731F841F951FA01D08952F923F924F925F926F927F928F929F923D
:20390000AF92BF92CF92DF92EF92FF920F931F93CF93DF93CDB7DEB7CA1BDB0B0FB6F894D4
:20392000DEBF0FBECDBF09942A88398848885F846E847D848C849B84AA84B984C884DF8096
:20394000EE80FD800C811B81AA81B981CE0FD11D0FB6F894DEBF0FBECDBFED010895DB0175
:203960008F939F930E941A1DBF91AF91A29F800D911DA39F900DB29F900D1124089597FBDD
:20398000072E16F4009407D077FD09D00E94251D07FC05D03EF4909581959F4F0895709577
:2039A00061957F4F0895A1E21A2EAA1BBB1BFD010DC0AA1FBB1FEE1FFF1FA217B307E40749
:2039C000F50720F0A21BB30BE40BF50B661F771F881F991F1A9469F76095709580959095B5
:2039E0009B01AC01BD01CF010895052E97FB1EF400940E940C1D57FD07D00E94D31C07FC5E
:203A000003D04EF40C940C1D50954095309521953F4F4F4F5F4F08959095809570956195E7
:203A20007F4F8F4F9F4F0895EE0FFF1F0590F491E02D09940E94391DA59F900DB49F900DA7
:203A4000A49F800D911D11240895AA1BBB1B51E107C0AA1FBB1FA617B70710F0A61BB70BE1
:203A6000881F991F5A95A9F780959095BC01CD010895A29FB001B39FC001A39F700D811D94
:203A80001124911DB29F700D811D1124911D0895AEE0B0E0EEE4FDE10C94861C0D891E890A
:203AA0008F89988D26E02C831A83098397FF02C080E090E801979E838D83AE01455E5F4FF2
:203AC000698D7A8DCE0101960E94FA194D815E8157FD0AC02F813885421753070CF49A0148
:203AE000020F131FF80110822E96E4E00C94A21CF894FFCFFFFFFFFF00E1000000000000DB
:203B000000C180810000005F5F5F606060616161616162626262626363636363636363645B
:203B2000646464646464646464646464646464646464646363636363636363626262626217
:203B40006261616161606060605F5F5F5E5E5E5D5D5D5C5C5C5B5B5A5A59595958585757CA
:203B6000565655555454535252515150504F4E4E4D4C4C4B4A4A49484847464545444342A6
:203B80004241403F3E3E3D3C3B3A39383837363534333231302F2E2D2C2B2A2928272625A6
:203BA000242322211F1E1D1C1B1A19171615141311100F0E0C0B0A0907060503020100309E
:203BC000303030310000000000A6023304E202D7022803E602040300000000BC0D8F0DEB1E
:203BE0000D650D880D750D660D0D0A0048523A2025642C2053704F323A2025640053656E8F
:203C000064696E673A200053657269616C207374617274656400526164696F207374617268
:203C20007465640050697065206F70656E00526164696F206F7065726174696E672061731B
:203C4000207472616E736D69747465720000FFFFFFFFFFFFFFFFFFFFFFFFFFFFFFFFFFFF99
:203C6000FFFFFFFFFFFFFFFFFFFFFFFFFFFFFFFFFFFFFFFFFFFFFFFFFFFFFFFFFFFFFFFF64
:203C8000FFFFFFFFFFFFFFFFFFFFFFFFFFFFFFFFFFFFFFFFFFFFFFFFFFFFFFFFFFFFFFFF44
:203CA000FFFFFFFFFFFFFFFFFFFFFFFFFFFFFFFFFFFFFFFFFFFFFFFFFFFFFFFFFFFFFFFF24
:203CC000FFFFFFFFFFFFFFFFFFFFFFFFFFFFFFFFFFFFFFFFFFFFFFFFFFFFFFFFFFFFFFFF04
:2070000055C000006EC000006CC000006AC0000068C0000066C0000064C0000062C0000043
:2070200060C000005EC00000F2C400005AC0000058C0000056C0000054C0000052C00000EE
:2070400050C0000078C000004CC000004AC0000048C0000046C0000044C0000042C00000BE
:2070600040C000003EC000003CC000003AC0000038C0000036C0000034C0000032C0000048
:2070800030C000002EC000002CC000002AC0000028C0000026C0000024C0000022C00000A8
:2070A00020C000001EC000001CC0000011241FBECFEFDAE0DEBFCDBF11E0A0E0B1E0E2E3BC
:2070C000FFE702C005900D92A83AB107D9F711E0A8EAB1E001C01D92AE3BB107E1F78FD30B
:2070E00026C78ECFF89410926F0010928100109285001092840081E085BF15BE47985D9AEB
:20710000289A0C94000008952091B2013091B3012F5F3F4F3093B3012093B201932F37FFA6
:2071200003C08EEF831B982F990F921710F447980895479A08951F920F920FB60F9211246E
:207140002F938F939F93EF93FF9310928500109284008091A8019091A901009741F00197D3
:207160009093A9018093A801892B09F45D9A8091AA019091AB01009741F001979093AB0126
:207180008093AA01892B09F4289AE0E0F0E0859194918F5F9F4F49F08091AC019091AD0151
:2071A00001969093AD018093AC01FF91EF919F918F912F910F900FBE0F901F90189584E0BC
:2071C0008093E9000DC08091E8008B778093E80003C08EB3882351F08091E80082FFF9CFBE
:2071E0008091E80085FFEFCF8091F1000895982F83E08093E9008091E80085FD0DC0809136
:20720000E8008E778093E80003C08EB3882369F08091E80080FFF9CF9093F1005D9884E6CB
:2072200090E09093A9018093A80108954F925F926F927F928F929F92AF92BF92CF92DF921E
:20724000EF92FF920F931F93CF93DF9384E08093E9008091E80082FF57C2289884E690E067
:207260009093AB018093AA01AADF182F853481F48CE49DE19093AD018093AC0107B600FC4B
:20728000FDCFF999FECF81E180935700E89503C0843519F494DF8DE00DC28C34E1F38035F9
:2072A000D1F3843721F484E4A2DF80E003C2813611F489E5FFC18134B1F481DF182F7FDFE3
:2072C00090E0880F991FAA2797FDA095BA2F312F330F20E0442737FD4095542F822B932B68
:2072E000A42BB52BB8C1803711F483E5E3C1833549F4C0E0D1E089917ADF21E0C730D20714
:20730000D1F7D9C1863521F481E371DF80E3D2C1833731F487E86BDF85E969DF8EE1CAC149
:207320008536B9F4E0E0F0E093E085E090935700E89507B600FCFDCF80935700E89507B65D
:2073400000FCFDCFE058FF4FA0E7E030FA0771F7A2CF823739F4E1E0F0E089E08093570024
:207360008491A8C1863439F4E0E0F0E089E08093570084919FC18E3439F4E3E0F0E089E0E5
:2073800080935700849196C1813539F4E2E0F0E089E08093570084918DC1823631F489E521
:2073A00026DF80E024DF80E885C1823419F0873609F0E5C01092AD011092AC0100DF082FE8
:2073C000FEDEF82EFCDE682E8554823008F071C1902F80E0CF2DD0E0C82BD92B10926F00B3
:2073E000173609F04BC081E180935700E895DD24CC24C3943FC0E090AE01F090AF010091CC
:20740000B0011091B101B6E46B16D9F4ED2DF0E0EE29FF29E4918E2FEADEDD2081F082E08D
:2074200090E0A0E0B0E0E80EF91E0A1F1B1FE092AE01F092AF010093B0011093B101DC2470
:2074400018C0D801C701B695A7959795879559D5CEDE82E090E0A0E0B0E0E80EF91E0A1FF2
:207460001B1FE092AE01F092AF010093B0011093B1012197209709F0BECF7DC08090AE01F5
:207480009090AF01A090B001B090B10196E4691609F05DC083E0F40180935700E89507B63E
:2074A00000FCFDCF54C0F6E46F1661F5772031F1E090AE01F090AF010091B0011091B1019E
:2074C0007EDED82ECC24852D90E08C299D29F7010C0140925700E895112482E090E0A0E08B
:2074E000B0E0E80EF91E0A1F1B1FE092AE01F092AF010093B0011093B10102C060DE582E1A
:20750000742423C0E090AE01F090AF010091B0011091B10116950795F794E79450DE682FFA
:20752000C701F7D48091AE019091AF01A091B001B091B1010296A11DB11D8093AE01909349
:20754000AF01A093B001B093B101219704C05524772444244394209709F0A5CF96E46916B6
:2075600041F485E0F40180935700E89507B600FCFDCF8DE03CDE82E080936F009CC0833492
:2075800071F40091AE011091AF0119DE90E021E0F8010C0120935700E89511247CCE8336C8
:2075A00019F5E090AE01F090AF010091B0011091B10105DEF701E16090E021E00C0120938C
:2075C0005700E895112482E090E0A0E0B0E0E80EF91E0A1F1B1FE092AE01F092AF0100936A
:2075E000B0011093B10157CE8D3661F4E091AE01F091AF0185E080935700E89507B600FCF2
:20760000FDCF49CE823551F4E091AE01F091AF0105911491812FEBDD802F4CC0843421F5FE
:20762000E090AE01F090AF010091B0011091B10116950795F794E794C2DD682FC70169D4DE
:207640008091AE019091AF01A091B001B091B1010296A11DB11D8093AE019093AF01A093D8
:20766000B001B093B10117CE843609F5E090AE01F090AF010091B0011091B101D801C70142
:20768000B695A795979587953CD4B1DD82E090E0A0E0B0E0E80EF91E0A1F1B1FE092AE010A
:2076A000F092AF010093B0011093B10104C08B3111F08FE39CDD83E08093E9009091E8002B
:2076C0008091E8008E778093E80095FF04C010C08EB38823C9F08091E80080FFF9CF809193
:2076E000E8008E778093E80003C08EB3882361F08091E80080FFF9CF84E08093E9008091F1
:20770000E8008B778093E800DF91CF911F910F91FF90EF90DF90CF90BF90AF909F908F90AC
:207720007F906F905F904F9008959091B601892F8F77813249F58091B7018032A1F081328A
:2077400019F5913A09F58091E800877F8093E8008DE091E067E070E00BD28091E8008B770B
:207760008093E8000895913279F48091E800877F8093E8008DE091E067E070E05DD2809192
:20778000E8008E778093E800089582E061EC42E0B5D083E061E842E1B1D084E060E842E1EF
:2077A000ADC084B7877F84BF88E10FB6F89480936000109260000FBE20E880E090E00FB63F
:2077C000F89420936100809361000FBE81E085BF92E095BF3F9A209A559AE1E6F0E02083A1
:2077E000108247985D9A289A109289008AEF8093880090936F0083E080938100F0C0409116
:20780000000850910108109201081092000894B714BE88E10FB6F8948093600010926000D5
:207820000FBE292F30E0F901E270F07091FD18C090FF05C0859194918F5F9F4F81F423FFFF
:207840000FC08091090190910A014817590741F0E0E0F0E0859194918F5F9F4F09F042DC64
:20786000A0DF78941092AD011092AC010CC0DEDC36D38091AC019091AD0181549F4110F00D
:207880001092140141DC80911401882381F78091E00081608093E00025DC80E090E0089598
:2078A000FA01923049F0933061F09130F9F485E191E022E130E01EC087E291E02EE330E04D
:2078C00019C0882329F485E691E024E030E012C0813029F489E691E022E230E00BC0823006
:2078E00029F48DE891E028E130E004C080E090E020E030E091838083C90108958093E9004E
:207900008091EB0081608093EB001092ED006093EC004093ED008091EE00881F8827881F62
:2079200008958091B60188238CF403C08EB38823B1F08091E80082FFF9CF8091E8008B772A
:207940008093E80008958EB3882349F08091E80080FFF9CF8091E8008E778093E800089594
:20796000EF92FF920F931F9345D04CD008ED10E0F80180818F77808380818068808380819B
:207980008F7D808319BC1EBA1092B40180EEE82EF12CF70180818B7F8083F8018081816052
:2079A000808380E060E042E0A9DFE1EEF0E080818E7F8083E2EEF0E0808181608083808144
:2079C00088608083F70180818E7F8083F8018081806180831F910F91FF90EF900895E7ED06
:2079E000F0E08081816080838AE482BF81E08093B501B6CFE8EDF0E080818E7F808310921C
:207A0000E20008951092DA001092E10008951F920F920FB60F9211242F933F934F935F93F6
:207A20006F937F938F939F93AF93BF93EF93FF938091DA0080FF1BC08091D80080FF17C0B2
:207A40008091DA008E7F8093DA008091D90080FF0BC080E189BD82E189BD09B400FEFDCF36
:207A600081E08EBB3BD203C019BC1EBA37D28091E10080FF17C08091E20080FF13C0809138
:207A8000E2008E7F8093E2008091E20080618093E2008091D80080628093D80019BC85E049
:207AA0008EBB1CD28091E10084FF2CC08091E20084FF28C080E189BD82E189BD09B400FEC5
:207AC000FDCF8091D8008F7D8093D8008091E1008F7E8093E1008091E2008F7E8093E20012
:207AE0008091E20081608093E2008091B401882331F48091E30087FD02C081E001C084E067
:207B00008EBBECD18091E10083FF21C08091E20083FF1DC08091E100877F8093E10082E06A
:207B20008EBB1092B4018091E1008E7F8093E1008091E2008E7F8093E2008091E2008061E9
:207B40008093E20080E060E042E0D8DEC7D1FF91EF91BF91AF919F918F917F916F915F9130
:207B60004F913F912F910F900FBE0F901F9018959C014091BC015091BD014617570718F49D
:207B8000F90190E044C06115710511F0AB01F8CF8091E8008E778093E80040E050E0F0CF0F
:207BA0008EB3882309F444C0853009F443C08091E80083FF02C081E008958091E80082FD70
:207BC00031C08091E80080FF22C08091F3009091F200782F60E0292F30E0262B372B07C07A
:207BE00081918093F100415050402F5F3F4F4115510519F02830310598F390E02830310566
:207C000009F491E08091E8008E778093E8004115510531F6992321F605C08EB3882341F075
:207C2000853041F08091E80082FFF7CF80E0089582E0089583E008959C016115710529F47C
:207C40008091E8008B778093E800F90126C08EB3882391F1853091F18091E80083FF02C06C
:207C600081E008958091E80082FFF1CF06C08091F10081936150704059F02091F300809191
:207C8000F200322F20E090E0822B932B892B79F78091E8008B778093E80061157105B9F601
:207CA00005C08EB3882341F0853041F08091E80080FFF7CF80E0089582E0089583E00895C2
:207CC0000F931F93DF93CF9300D0CDB7DEB7E6EBF1E08091F100819381E0EE3BF807C9F792
:207CE00024DD8091E80083FFE4C08091B6019091B701953009F46DC0963040F4913081F1A7
:207D0000913070F0933009F0D4C02AC0983009F4A3C0993009F4B2C0963009F0CAC07CC023
:207D2000803809F4C6C0823809F0C3C08091BA0187708093E9008091EB001092E9002091DB
:207D4000E800277F2093E80090E025E0969587952A95E1F781708093F1001092F10087C0D8
:207D6000882319F0823009F0A4C08F71823009F0A0C08091B801882331F52091BA01277097
:207D800009F497C02093E9008091EB0080FF1BC0933021F48091EB00806213C08091EB0018
:207DA00080618093EB0081E090E002C0880F991F2A95E2F78093EA001092EA008091EB00E5
:207DC00088608093EB001092E9008091E800877F51C0882309F06DC01091B8011F770FB79B
:207DE000F8948091E800877F8093E8009ADD8091E80080FFFCCF8091E3008078812B809398
:207E0000E30080688093E300112311F482E001C083E08EBB0FBF4DC08058823008F049C033
:207E20008091B8019091B9016091BA01AE014F5F5F4F36DDBC01009709F43BC08091E8008E
:207E4000877F8093E80089819A8192DE8091E8008B778093E8002DC0803859F58091E800AA
:207E6000877F8093E8008091B4018093F1008091E8008E778093E80054DD1BC08823C9F4CA
:207E80009091B8019230A8F48091E800877F8093E8009093B40145DD8091B401882331F420
:207EA0008091E30087FD02C081E001C084E08EBB6CDC8091E80083FF0AC08091EB0080624E
:207EC0008093EB008091E800877F8093E8000F900F90CF91DF911F910F91089508951F9360
:207EE0008EB3882361F01091E9001092E9008091E80083FF01C0E4DE17701093E9001F916F
:207F00000895F999FECF92BD81BDF89A992780B50895262FF999FECF1FBA92BD81BD20BDBD
:207F20000FB6F894FA9AF99A0FBE01960895F894FFCF4341544552494E4100777700080031
:207F40000000000000080112011001020000084123360001000201000109023E00020100FF
:207F600080320904000001020201000524001001042402040524060001070582030800FF0C
:207F800009040100020A000000070504021000010705830210000104030904220341007216
:207FA000006400750069006E006F0020004C0065006F006E006100720064006F0000001836
:1A7FC00003410072006400750069006E006F0020004C004C004300000000D7
:00000001FF
